1:
un_hexed_data = 'have fun staying poor'
data = 686176652066756e2073746179696e6720706f6f72

// data_with_len_and_op_equal 
script = 15686176652066756e2073746179696e6720706f6f7287
hashed_script = fb528f99064469fd19f1fc7f105a9fd324c71607

FORMAT:
_____________
scriptPubKey: len(scriptPubKey), <ophash160>, len(hashed_script), hashed_script, <opequal>

scriptSig: len(scriptSig), len(data), data, len(unhashed_original_script), unhashed_original_script

witnessStacks: <numStacks> <segwitVersion> len(sha256(original_script)) sha256(original_script)
_____________

scriptPubKey = 17 a9 14 fb528f99064469fd19f1fc7f105a9fd324c71607 87

scriptSig = 2e 15 686176652066756e2073746179696e6720706f6f72 17 15686176652066756e2073746179696e6720706f6f7287


2:

original_script = 15686176652066756e2073746179696e6720706f6f7287

TERMINAL
-------------
>>> from hashlib import sha256
>>> data = bytes.fromhex("15686176652066756e2073746179696e6720706f6f7287")
>>> sha256(data).hexdigest()
'ab49613a4ed0393348cceb73b137281e4265b1cf6649f00de716656cb91c0934'
-------------

P2WSH = 00 20 ab49613a4ed0393348cceb73b137281e4265b1cf6649f00de716656cb91c0934

3:

TX1: lock funds up to our P2WSH script
010000000001019ad42b0fab13d340a93a7f703fa51d62d0bb82c345fe8b90a1fa400be4e90a440000000000ffffffff01400e000000000000220020ab49613a4ed0393348cceb73b137281e4265b1cf6649f00de716656cb91c09340247304402201e63d1fd638673af418f44ba960c465f635347e572cac432f3a239a31381ea5f022039d62528c655bd12f83439574a2326e59ef267f16c474c576e7095c0a18fca24012103c18d5cbda58a32a36c895d33b96107bd79938f8aa55018829f2738895275e2ef00000000

txid: 7aec83c139c1b7bb33043c8396dd2f5df9e745bc9a30b4e5807f0f8d32881786

TX2: spends the P2WSH
version: 02000000
marker+flag: 0001
inputs: 01
  txid: 861788328d0f7f80e5b4309abc45e7f95d2fdd96833c0433bbb7c139c183ec7a
  vout: 00000000
  scriptSig: 00
  sequence: feffffff
outputs: 0
  amount: 6c07000000000000
  scriptPubKey: 22 00 20 ab49613a4ed0393348cceb73b137281e4265b1cf6649f00de716656cb91c0934
witness data: 02 
                15686176652066756e2073746179696e6720706f6f72 
                1715686176652066756e2073746179696e6720706f6f7287
locktime: 00000000

02000000000101861788328d0f7f80e5b4309abc45e7f95d2fdd96833c0433bbb7c139c183ec7a0000000000feffffff016c07000000000000220020ab49613a4ed0393348cceb73b137281e4265b1cf6649f00de716656cb91c09340215686176652066756e2073746179696e6720706f6f721715686176652066756e2073746179696e6720706f6f728700000000

CONSOLE
----------------
sendrawtransaction 02000000000101861788328d0f7f80e5b4309abc45e7f95d2fdd96833c0433bbb7c139c183ec7a0000000000feffffff016c07000000000000220020ab49613a4ed0393348cceb73b137281e4265b1cf6649f00de716656cb91c09340215686176652066756e2073746179696e6720706f6f721715686176652066756e2073746179696e6720706f6f728700000000

582d402ad65f8febc81959c52fd5ed64ae105829cce0731800a73da3959a76cc
------------------


txid: 582d402ad65f8febc81959c52fd5ed64ae105829cce0731800a73da3959a76cc
